:03000000020943AF
:0C094300787FE4F6D8FD75810B02091DD9
:10091D007F471208F678087C007D007E007F02126A
:08092D0008D08508908509A09F
:01093500229F
:0C093600EF540FC454F0FFED540F2FFFDE
:010942002292
:0208F600AD074C
:1008F800ED54F0FF3395E0FEEF7804CEA2E713CE77
:1009080013D8F82430F50AED540F2430F50B7B008A
:040918007A00790ADE
:01091C0022B8
:10080000E709F608DFFA8046E709F208DFFA803EDA
:1008100088828C83E709F0A3DFFA8032E309F608C7
:10082000DFFA8078E309F208DFFA807088828C832F
:10083000E309F0A3DFFA806489828A83E0A3F608E3
:10084000DFFA805889828A83E0A3F208DFFA804CBD
:1008500080D280FA80C680D4806980F28033801094
:1008600080A680EA809A80A880DA80E280CA8033FD
:1008700089828A83ECFAE493A3C8C582C8CCC58375
:10088000CCF0A3C8C582C8CCC583CCDFE9DEE78045
:100890000D89828A83E493A3F608DFF9ECFAA9F0C4
:1008A000EDFB2289828A83ECFAE0A3C8C582C8CC1A
:1008B000C583CCF0A3C8C582C8CCC583CCDFEADE33
:1008C000E880DB89828A83E493A3F208DFF980CC95
:1008D00088F0EF60010E4E60C388F0ED2402B4048E
:1008E0000050B9F582EB2402B4040050AF23234535
:0608F00082239008507302
:00000001FF
